S00F0000537263436F64652E7372656372
S11300000C942A000C9434000C9434000C943400A6
S11300100C9434000C9434000C9434000C9434008C
S11300200C9434000C9434000C9434000C9434007C
S11300300C9434000C9434000C9434000C9434006C
S11300400C9434000C9434000C9434000C9434005C
S11300500C94340011241FBECFE5D8E0DEBFCDBF21
S11300600E94E5000C940E010C940000843008F00A
S113007090C0683008F08FC0423008F08EC08130E4
S113008041F138F0823009F444C0833009F461C08E
S113009086C0442319F0413071F083C02BB381E052
S11300A090E002C0880F991F6A95E2F78095822339
S11300B08BBB81E0089581E090E002C0880F991F16
S11300C06A95E2F72BB3822B9BB3892B8BBB81E020
S11300D00895442319F0413071F065C028B381E0DC
S11300E090E002C0880F991F6A95E2F780958223F9
S11300F088BB81E0089581E090E002C0880F991FD9
S11301006A95E2F728B3822B98B3892B88BB81E0E8
S11301100895442319F0413071F047C025B381E0BC
S113012090E002C0880F991F6A95E2F780958223B8
S113013085BB81E0089581E090E002C0880F991F9B
S11301406A95E2F725B3822B95B3892B85BB81E0B1
S11301500895442319F0413071F029C022B381E09D
S113016090E002C0880F991F6A95E2F78095822378
S113017082BB81E0089581E090E002C0880F991F5E
S11301806A95E2F722B3822B92B3892B82BB81E07A
S1130190089580E0089580E0089580E0089581E066
S11301A0089581E0089581E0089581E0089581E053
S11301B0089580E18ABB82E087BB1BBA18BA14BADF
S11301C015BA11BA80E482BB08950E94D90041E0B7
S11301D064E082E00E9436002FE38DE093E021503A
S11301E080409040E1F700C0000040E064E082E01D
S11301F00E94360041E061E083E00E9436002FE374
S11302008DE093E0215080409040E1F700C0000071
S113021040E061E083E00E943600D9CFF894FFCF3C
S9030000FC
